:020000040800F2
:1000000098A90720F5030008070300080903000862
:100010004F1D01080B0300080D030008000000003D
:100020000000000000000000000000000F030008B6
:100030001103000800000000130300081503000866
:100040000F0400080F0400080F0400080F04000844
:100050000F0400080F0400080F0400080F04000834
:100060000F0400080F0400080F0400080F04000824
:100070000F0400080F0400080F0400080F04000814
:100080000F0400080F0400080F0400080F04000804
:10009000C53801080F0400080F0400080F04000809
:1000A0000F0400080F0400080F0400080F040008E4
:1000B0000F040008151501080F0400080F040008BC
:1000C0000F0400080F0400080F0400080F040008C4
:1000D0000F04000843EA00080F0400080F0400089A
:1000E0000F0400080F0400080F0400080F040008A4
:1000F0000F0400080F0400080F0400080F04000894
:100100000F0400080F0400080F0400080F04000883
:100110000F0400080F0400081B1501080F04000855
:100120008D1E0108C91E01080F04000821130108D3
:100130000F0400080F0400080F0400080F04000853
:100140000F0400080F0400080F0400080F04000843
:10015000BD1301080F0400080F0400080F04000875
:100160000F0400080F0400080F0400080F04000823
:100170000F0400080F0400080F040008000000002E
:100180000F0400080F0400080F0400080F04000803
:100190000F0400080F0400080F0400080F040008F3
:1001A0000F0400080F0400080F0400080F040008E3
:1001B0000F0400080F0400080F0400080F040008D3
:1001C0000F0400080F040008000000000F040008DE
:1001D0000F0400080F0400080F0400080F040008B3
:1001E0000F040008BD3801080F0400080F040008C0
:1001F000271F01080F04000800F002F800F064F85F
:100200000AA090E8000C82448344AAF10107DA4571
:1002100001D100F059F8AFF2090EBAE80F0013F05F
:10022000010F18BFFB1A43F00103184718B203006F
:1002300038B203000A444FF0000C10F8013B13F0F1
:10024000070408BF10F8014B1D1108BF10F8015B2F
:10025000641E05D010F8016B641E01F8016BF9D122
:1002600013F0080F1EBF10F8014BAD1C0C1B09D179
:100270006D1E58BF01F801CBFAD505E014F8016BEB
:1002800001F8016B6D1EF9D59142D6D3704700007D
:100290000023002400250026103A28BF78C1FBD88F
:1002A000520728BF30C148BF0B60704764291DF05A
:1002B000998078291DF0D280002070471FB524F066
:1002C00097FB1FBD10B510BD1DF0D0FB1146FFF709
:1002D000F5FF00F011F81DF0EEFB03B4FFF7F2FF9D
:1002E00003BC0EF05BFB000030BF72B6704762B615
:1002F000704780F30888704710B513F0EEF81CF0D3
:10030000F1FB002010BD7047FEE7FEE7FEE77047F7
:100310007047704700F0C9B82E48016841F4700179
:1003200001602D48016841F0010101602A4A002165
:10033000083211600268294B1A400260031D284AE6
:100340001A60026822F48022026023480C300160A7
:100350005806204980390860704770B51E4E08362F
:10036000306800F00C001F4B1F4900280ED01F4DB5
:1003700004280DD008280DD00B6030681C4AC0F34B
:100380000310105C0A68C2400A6070BD0B60F4E79D
:100390000D60F2E7104A121D1068C0F38054106817
:1003A00000F03F0034B1B5FBF0F01368C3F38813DD
:1003B000584305E0B3FBF0F01368C3F388135843C8
:1003C0001268C2F30142521C5200B0FBF2F0086006
:1003D000D3E7000088ED00E000380240FFFFF6FEA2
:1003E000103000240024F4000000022040787D0139
:1003F000FA4902080948804709480047FEE7FEE736
:10040000FEE7FEE7FEE7FEE7FEE7FEE7FEE7FEE7C4
:1004100004480549054A064B7047000019030008C7
:10042000F901000898A3072098A9072098A507209C
:1004300098A50720704710B5044658484FF47A72C3
:100440000068B0FBF2F000F006F900222146501ED1
:1004500000F0BFF8002010BD10B55148016841F40C
:1004600000710160052000F0A7F80F20FFF7E3FFFF
:10047000FFF7E0FF002010BD704710B5494A4FF06C
:10048000FF30106000211160121D10601160454A9C
:10049000103A10601160121D10601160121D106082
:1004A0001160FFF7E9FF002010BD3F480168491CBB
:1004B000016070473C480068704731B5FFF7FAFFAC
:1004C0000446FFF7F7FF0099001B8842F9D338BDB7
:1004D0004FF0E020016921F00201016170474FF007
:1004E000E020016941F00201016170472F48704727
:1004F0002F480068000C70472D480068C0F30B00BF
:1005000070472B48416841F001014160704728481D
:10051000416821F00101416070472548416841F080
:100520000201416070472248416821F002014160A8
:1005300070471F48416841F00401416070471C4802
:10054000416821F00401416070471A48016841F098
:100550000101016070471748016821F00101016045
:10056000704714482038016841F480610160704789
:1005700010482038016821F44061016070470D483F
:100580002038016841F480710160704709482038C3
:10059000016821F4807101607047000000000220B2
:1005A000003C02402038024004000220000001010B
:1005B000002004E02038014000F00701894A10685B
:1005C0004FF6FF03184040EA0120874908431060B6
:1005D0007047F0B40D46834B1B68C3F30223C3F18D
:1005E0000704042C00D90424191D072901D2002373
:1005F00000E0DB1E012606FA04F1491E294099405D
:100600009E40761E16403143F0BC00F0DBB801215D
:1006100000F01F0291404009800000F1E020C0F886
:1006200000117047012100F01F0291404009800035
:1006300000F1E020C0F880117047BFF34F8F694888
:100640000168694A01F4E061121D11430160BFF3C2
:100650004F8F00BFFDE710B5401EB0F1807F01D382
:10066000012010BD4FF0E02460610F21601700F001
:10067000A9F80020A06107202061002010BD594A80
:1006800041788C321160111D03780A1D002B1CD09B
:1006900043680B60017BC37A090741EA0361837AEF
:1006A00041EAC341437B41EA8341837B41EA4341C1
:1006B000C37B41EA0341437A41EA0321037A00788C
:1006C00041EA430101431160704700200860106057
:1006D000704744480068C0F302207047F0B5002816
:1006E00007DA00F00F0000F1E02090F8140D040983
:1006F00004E000F1E02090F80004040901F0070094
:10070000C0F10701042900D90421051D072D01D2DC
:10071000002000E0C01E012724FA00F607FA01F5C8
:100720006D1E2E40166007FA00F56D1E25401D60F7
:10073000F0BD012100F01F0291404009800000F14E
:10074000E020C0F8001270474109890001F1E02162
:10075000D1F8001200F01F0201209040014201D0A8
:100760000120704700207047012100F01F029140D6
:100770004009800000F1E020C0F880127047410974
:10078000890001F1E021D1F8001300F01F020120DF
:100790009040014201D0012070470020704704289A
:1007A0004FF0E02104D0086920F004000861704790
:1007B000086940F0040008617047704710B5FFF702
:1007C000FCFF10BD0907090E002806DA00F00F0033
:1007D00000F1E02080F8141D704700F1E02080F85F
:1007E000001470470CED00E00000FA050168CAB281
:1007F000103A1823B2FBF3F2FE4B9B5CC365032A4D
:100800006FF3090102D9091D816500E08165806DE2
:100810007047014610B500208A6A4FF0C0748B699A
:10082000002B0ED0B3F5005F1FD08AB3012A32D05F
:10083000022A30D0032A03D1C96AC90100D5012098
:1008400010BD42B1012A0BD0022AF9D1C96AC901EF
:10085000F6D5012010BDC96AC901FBD5012010BD24
:10086000C96AA142FBD1012010BD52B1012A0AD0B0
:10087000022A0ED0032AF7D1C96AA142F4D101207D
:1008800010BD012010BDC96AC901FBD5012010BDF2
:1008900001E00120FBE70120F9E72DE9F0410446E2
:1008A000FFF708FE05465CB1002684F8346002209C
:1008B00084F835002068016821F0010101600DE035
:1008C0000120BDE8F081FFF7F5FD401B052805D9A3
:1008D00020206065032084F83500F2E72068006876
:1008E000C007F0D121680A68C3480240D4E9010377
:1008F0001843D4E903352B43184363691843A369AC
:100900001843E3691843236A18431043626A042AB0
:1009100003D1D4E90B231A431043086020684069CF
:1009200020F00700656A29460543012704290BD1F9
:10093000A06A05432046FFF76CFF28B140206065A0
:1009400084F835700120BCE7206845612046FFF738
:100950004DFF94F85C203F2191408160666584F8EA
:1009600035700020ADE770B50446002C24D094F813
:100970003500022822D02068016821F001010160C1
:100980002068002505602068456020688560206833
:10099000C560206805612120216848612046FFF775
:1009A00025FF34343F2194F828209140816025624E
:1009B00065702570002070BD012070BD022070BDE3
:1009C00030B50468256825F48025256004686360D7
:1009D0008368402B04D0036899600068C26030BD12
:1009E00003689A600068C16030BD70B50446002598
:1009F00094F8340001280CD0012084F8340094F8D5
:100A000035600020012E06D084F8340002252846E7
:100A100070BD022070BD022684F8356060652046F6
:100A2000FFF7CEFF2068016841F001010160EEE7A9
:100A30002DE9F04104460025A66D94F83400012804
:100A40000CD0012084F8340094F835700020012F78
:100A500006D084F834000225284632E7022030E729
:100A6000022784F8357060652046FFF7A9FF94F8E7
:100A70005C103F208840B0602068016841F016019A
:100A800001602068416941F080014161206C20B122
:100A90002068016841F0080101602068016841F0A8
:100AA00001010160D8E72DE9F0410446A76DFFF789
:100AB00001FD054694F835000026022805D0802067
:100AC000606584F834600120FBE62068016821F04D
:100AD000160101602068416921F080014161206CAC
:100AE00008B9A06C20B12068016821F008010160FC
:100AF0002068016821F0010101600BE0FFF7DAFCDA
:100B0000401B052806D9202034342062267003209B
:100B10006070D6E620680068C007EFD134343F200B
:100B200094F828108840B86026700120607000207A
:100B3000C7E690F83510022903D0802141650120D5
:100B40007047052180F835100068016821F0010127
:100B50000160002070472DE9F74F82B00446174628
:100B600000200190FFF7A6FC814620680068C005C0
:100B700006D54FF480706065012005B0BDE8F08FA8
:100B8000039860B194F85C1010208840A56D2E6821
:100B90004FF0000A4FF0010B06EA00083DE094F820
:100BA0005C1020208840F1E7781C0ED02FB1FFF7B1
:100BB00081FCA0EB0900B84207D92020606584F8C9
:100BC00034A084F835B00320D7E794F85C100820EF
:100BD0008840304204D0616D41F001016165A86038
:100BE00094F85C100548884030420BD0616D41F0AC
:100BF000020105E0124A02083F8010E00100800077
:100C00006165A86094F85C10BC488840304204D00C
:100C1000616D41F004016165A860B8F1000FC3D0B7
:100C2000606D302688B1606DC0070CD02046FFF79C
:100C30003AFF94F85C008640AE6084F834A084F8F3
:100C400035B0012099E701200190039830B194F864
:100C50005C1010208840A86001988EE794F85C0032
:100C60008640AE6084F834A084F835B0F4E72DE90E
:100C7000F84304464FF00008CDF800804FF41651B9
:100C80009F480068B0FBF1F7A56D2E68082294F824
:100C90005C0002FA00F1314210D020680168490777
:100CA0000CD5016821F00401016094F85C0002FA9F
:100CB00000F1A960606D40F0010060658F4894F814
:100CC0005C10C01E8840304208D02168496909067E
:100CD00004D5A860606D40F00200606594F85C1077
:100CE00086488840304208D021680968890704D5C1
:100CF000A860606D40F00400606594F85C101020FE
:100D00008840304220D02168096809071CD5A860B6
:100D10002068016849030CD50068000304D4216CE5
:100D200091B1204688470FE0A16C69B12046884701
:100D30000AE00168C90503D4016821F008010160D7
:100D4000216C09B12046884794F85C102020884027
:100D500030424FF001064CD021680968C90648D5D9
:100D6000A86094F8350005280BD020680168490375
:100D700030D50068000328D4616C51B32046884701
:100D800037E02068016821F01601016020684169A0
:100D900021F080014161206C08B9A06C20B120686D
:100DA000016821F00801016094F85C103F20884040
:100DB000A86084F8348084F83560216D00293BD028
:100DC00001B02046BDE8F0430847E16B09B1204679
:100DD00088470EE00168C90507D4016821F01001B9
:100DE000016084F8348084F83560E16B09B12046F5
:100DF0008847606D00281FD0606DC00714D00520A3
:100E000084F835002068016821F001010160009834
:100E1000401C0090B84203D820680068C007F6D193
:100E200084F8348084F83560E16C002904D001B086
:100E30002046BDE8F0430847BDE8F88310B500231D
:100E400090F83440012C0CD0012480F8344090F804
:100E50003540012C07D00123002180F834101846BA
:100E600015E5022013E50629F6D2DFE801F00305B7
:100E700007090B0DC263EFE70264EDE74264EBE79D
:100E80008264E9E7C264E7E70265E5E710B500239D
:100E900090F83420012A0CD0012280F8342090F8F8
:100EA00035400022012C06D0012380F8342018465A
:100EB000EDE40220EBE4072918D2DFE801F0040694
:100EC000080A0C0E1000C263EFE70264EDE742640B
:100ED000EBE78264E9E7C264E7E70265E5E7C2633E
:100EE000026442648264C2640265DEE70123DCE7D7
:100EF00090F835007047406D704700000400800096
:100F00000000022010B5046863608368402B04D0A1
:100F1000036899600068C26010BD03689A60006849
:100F2000C16010BD2DE9F0410446069E0025A06871
:100F300080280ED094F8340001280FD0012084F8C6
:100F4000340094F8350001280AD002252846BDE86F
:100F5000F0814FF4807060650125F7E70220F6E725
:100F6000022084F835002068076847F4802707606E
:100F70002068036133462046FFF7C4FF20680168FC
:100F800041F001010160E1E72DE9F84F04460A9EB6
:100F9000002000904FF48075A068802812D094F84B
:100FA0003400012811D0012084F8340094F8357001
:100FB0000020012F0BD084F834000220009000980C
:100FC000BDE8F88F65650120FAE70220F8E70227FF
:100FD00084F8357060652068076847F480270760EB
:100FE0002068036133462046FFF78CFFF94A4FF42F
:100FF000006AF94B4FF4001BF64E483AF64F603347
:10100000DFF8D0E31836DFF8CCC31837DFF8C88331
:10101000DFF8C093ACF1300C216808F17808EE4895
:1010200009F13009714542D9814202D14FF0200ABD
:1010300038E0914202D14FF0200A33E0994202D1C8
:101040004FF0200A2EE0B14202D14FF0200A29E0F1
:10105000B94227D0614525D0414523D0494521D00B
:10106000DFF874A30AF1300A514501D1DA4619E0DC
:10107000DFF860A3AAF1180A514501D1DA4611E060
:10108000DFF854A30AF1900A514501D1DA4609E08C
:10109000DFF840A30AF1480A514501D1DA4601E0E0
:1010A0004FF0006ACB494C39C1F800A0D3E0DFF81B
:1010B00028E30EF1A80E714542D9814202D14FF0CA
:1010C000200A38E0914202D14FF0200A33E09942E1
:1010D00002D14FF0200A2EE0B14202D14FF0200A97
:1010E00029E0B94227D0614525D0414523D0494563
:1010F00021D0DFF8E4A20AF1300A514501D1DA46E5
:1011000019E0DFF8D0A2AAF1180A514501D1DA4658
:1011100011E0DFF8C4A20AF1900A514501D1DA4684
:1011200009E0DFF8B0A20AF1480A514501D1DA46D8
:1011300001E04FF0006AA7495039C1F800A08AE0E9
:10114000DFF894E20EF1480E714542D9814202D196
:101150004FF0200A38E0914202D14FF0200A33E0EC
:10116000994202D14FF0200A2EE0B14202D14FF055
:10117000200A29E0B94227D0614525D0414523D036
:10118000494521D0DFF850A20AF1300A514501D17A
:10119000DA4619E0DFF83CA2AAF1180A514501D15C
:1011A000DA4611E0DFF830A20AF1900A514501D188
:1011B000DA4609E0DFF81CA20AF1480A514501D1DC
:1011C000DA4601E04FF0006A83491039C1F80CA0FB
:1011D00041E0814202D14FF0200A38E0914202D131
:1011E0004FF0200A33E0994202D14FF0200A2EE05E
:1011F000B14202D14FF0200A29E0B94227D061451F
:1012000025D0414523D0494521D0DFF8CCA10AF1B2
:10121000300A514501D1DA4619E0DFF8B8A1AAF148
:10122000180A514501D1DA4611E0DFF8ACA10AF104
:10123000900A514501D1DA4609E0DFF898A10AF198
:10124000480A514501D1DA4601E04FF0006A62498F
:101250001039C1F808A04FF4806ADFF878E14FF444
:10126000801B2168714542D9814202D14FF0100A9A
:1012700038E0914202D14FF0100A33E0994202D196
:101280004FF0100A2EE0B14202D14FF0100A29E0CF
:10129000B94227D0614525D0414523D0494521D0C9
:1012A000DFF834A10AF1300A514501D1DA4619E0DC
:1012B000DFF820A1AAF1180A514501D1DA4611E060
:1012C000DFF814A10AF1900A514501D1DA4609E08C
:1012D000DFF800A10AF1480A514501D1DA4601E0E0
:1012E0004FF0806A3B494C39C1F800A0CFE0DFF8ED
:1012F000E8E00EF1A80E714542D9814202D14FF0CB
:10130000100A38E0914202D14FF0100A33E09942BE
:1013100002D14FF0100A2EE0B14202D14FF0100A74
:1013200029E0B94227D0614525D0414523D0494520
:1013300021D0DFF8A4A00AF1300A514501D1DA46E4
:1013400019E0DFF890A0AAF1180A514501D1DA4658
:1013500011E0DFF884A00AF1900A514501D1DA4684
:1013600009E0DFF870A00AF1480A514501D1DA46D8
:1013700001E04FF0806A17495039C1F800A086E0BB
:10138000DFF854E00EF1480E714542D9814202D196
:101390004FF0100A38E0914202D14FF0100A33E0CA
:1013A000994202D14FF0100A2EE0B14202D14FF023
:1013B000100A29E0B94227D0614525D0414523D004
:1013C000494521D0DFF810A00AF1300A514505D176
:1013D000DA4619E05864024010600240DFF80CA4BD
:1013E000514501D1DA460FE0DFF804A4514501D19F
:1013F000DA4609E0DFF8F4A30AF1600A514501D1A9
:10140000DA4601E04FF0806AF949A039C1F80CA032
:101410003DE0814202D14FF0100A34E0914202D106
:101420004FF0100A2FE0994202D14FF0100A2AE043
:10143000B14202D14FF0100A25E0B94223D06145F4
:1014400021D041451FD049451DD0DFF8A4A3AAF102
:10145000600A514501D1DA4615E0DFF890A3514505
:1014600001D1DA460FE0DFF888A3514501D1DA4611
:1014700009E0DFF878A30AF1600A514501D1DA46A4
:1014800001E04FF0806ADA49A039C1F808A04FF4B2
:10149000007ADFF858E34FF4002B21680EF1180EA4
:1014A00071453ED9814202D14FF0080A34E09142A1
:1014B00002D14FF0080A2FE0994202D14FF0080AFA
:1014C0002AE0B14202D14FF0080A25E0B94223D008
:1014D000614521D041451FD049451DD0DFF810A3FB
:1014E000AAF1600A514501D1DA4615E0DFF8FCA205
:1014F000514501D1DA460FE0DFF8F4A2514501D1A0
:10150000DA4609E0DFF8E4A20AF1600A514501D1A8
:10151000DA4601E04FF0007AB4493439C1F800A04E
:10152000C7E0DFF8CCE20EF1180E71453ED98142DA
:1015300002D14FF0080A34E0914202D14FF0080A7C
:101540002FE0994202D14FF0080A2AE0B14202D1BD
:101550004FF0080A25E0B94223D0614521D041452A
:101560001FD049451DD0DFF888A2AAF1600A514575
:1015700001D1DA4615E0DFF874A2514501D1DA460F
:101580000FE0DFF86CA2514501D1DA4609E0DFF83F
:101590005CA20AF1600A514501D1DA4601E04FF040
:1015A000007A92493839C1F800A082E0DFF840E2C1
:1015B000AEF1480E71453ED9814202D14FF0080A82
:1015C00034E0914202D14FF0080A2FE0994202D153
:1015D0004FF0080A2AE0B14202D14FF0080A25E094
:1015E000B94223D0614521D041451FD049451DD086
:1015F000DFF8FCA1AAF1600A514501D1DA4615E0F5
:10160000DFF8E8A1514501D1DA460FE0DFF8E0A1AB
:10161000514501D1DA4609E0DFF8D0A10AF1600AAC
:10162000514501D1DA4601E04FF0007A7049A03906
:10163000C1F80CA03DE0814202D14FF0080A34E02D
:10164000914202D14FF0080A2FE0994202D14FF0A7
:10165000080A2AE0B14202D14FF0080A25E0B94257
:1016600023D0614521D041451FD049451DD0DFF829
:1016700080A1AAF1600A514501D1DA4615E0DFF8F0
:101680006CA1514501D1DA460FE0DFF864A1514564
:1016900001D1DA4609E0DFF854A10AF1600A5145A8
:1016A00001D1DA4601E04FF0007A5149A039C1F882
:1016B00008A04FF4802BDFF834E12168DFF834A173
:1016C0000EF1180E714533D9814201D155462BE0F8
:1016D000914201D1554627E0994201D1554623E078
:1016E000B14201D155461FE0B9421DD061451BD022
:1016F000414519D0494517D03D4D603DA94201D122
:101700005D4611E0394DA94201D15D460CE0384DEE
:10171000A94201D15D4607E0344D6035A94201D1AF
:101720005D4601E04FF08075304934390D60ACE022
:10173000DFF8BCE00EF1180E714533D9814201D1BA
:1017400055462BE0914201D1554627E0994201D1FF
:10175000554623E0B14201D155461FE0B9421DD0A4
:1017600061451BD0414519D0494517D0204D603DFA
:10177000A94201D15D4611E01C4DA94201D15D464F
:101780000CE01B4DA94201D15D4607E0174D6035C5
:10179000A94201D15D4601E04FF080751349383907
:1017A0000D6072E0DFF848E0AEF1480E714539D9BE
:1017B000814201D1554631E0914201D155462DE09B
:1017C000994201D1554629E0B14201D1554625E063
:1017D000B94223D0614521D041451FD049451DD094
:1017E000034D603DA94207D15D4617E040640240C9
:1017F000A060024004008000A64DA94201D15D46D0
:101800000CE0A54DA94201D15D4607E0A14D603530
:10181000A94201D15D4601E04FF080759E49A03993
:10182000CD6032E0814201D155462BE0914201D199
:10183000554627E0994201D1554623E0B14201D1F6
:1018400055461FE0B9421DD061451BD0414519D016
:10185000494517D0904D603DA94201D15D4611E048
:101860008C4DA94201D15D460CE08B4DA94201D1BE
:101870005D4607E0874D6035A94201D15D4601E034
:101880004FF080758449A0398D604FF4803ADFF8BD
:1018900004E24FF4800B2168804D0EF1180E714563
:1018A00032D981422CD091422AD0994228D0B142DB
:1018B00026D0B94201D1402522E0614501D1402521
:1018C0001EE0414501D140251AE0494501D140259E
:1018D00016E071486038814201D1554610E06D48EC
:1018E000814201D155460BE06B48814201D15546FA
:1018F00006E068486030814201D1554600E05D460F
:10190000644834380560A3E0DFF88CE10EF1180E6E
:10191000714532D981422CD091422AD0994228D0A7
:10192000B14226D0B94201D1402522E0614501D122
:1019300040251EE0414501D140251AE0494501D12D
:10194000402516E054486038814201D1554610E0E8
:101950005048814201D155460BE04F48814201D1A8
:10196000554606E04B486030814201D1554600E0C3
:101970005D464848383805606AE0DFF81CE1AEF1A2
:10198000480E714532D981422CD091422AD09942D9
:1019900028D0B14226D0B94201D1402522E061458C
:1019A00001D140251EE0414501D140251AE04945BD
:1019B00001D1402516E038486038814201D15546B2
:1019C00010E03448814201D155460BE03248814253
:1019D00001D1554606E02F486030814201D155467D
:1019E00000E05D462C48A038C56031E081422CD033
:1019F00091422AD0994228D0B14226D0B94201D191
:101A0000402522E0614501D140251EE0414501D13C
:101A100040251AE0494501D1402516E01E486038AE
:101A2000814201D1554610E01A48814201D1554604
:101A30000BE01948814201D1554606E01548603057
:101A4000814201D1554600E05D461348A0388560CB
:101A50002068016841F0160101602068416941F089
:101A600080014161206C08B9A06C20B12068016838
:101A700041F0080101602068016841F00101016046
:101A8000FFF79DBA0068002A02D00161002070476C
:101A9000C160FBE740640240A0600240010080009A
:101AA0002DE9F84F0022DFF82C93DFF828834FF060
:101AB000010E09F108094FF00F0C09F1040A0EFAA2
:101AC00002F60B683340B34271D14C68022C01D04E
:101AD000122C11D1D40800EB84073D6A5407E40EA0
:101AE0000CFA04FB25EA0B05D1F810B00BFA04FB45
:101AF0004BEA050BC7F820B0076854000325A54042
:101B0000AF4391F804B00BF0030B0BFA04FB4BEA64
:101B1000070BC0F800B04F68012F05D0022F03D08B
:101B2000112F01D0122F11D18768AF43D1F80CB01B
:101B30000BFA04FB4BEA070BC0F808B04768B74341
:101B40000E79C6F3001696403E434660C668AE4323
:101B50008D68A5403543C5604C68E4006FD59E4C48
:101B6000256845F480452560246804F48044009489
:101B70009A4C22F003052544D5F808789407260FDF
:101B80000CFA06F4A743964CA04201D100242EE0A3
:101B9000944CA04201D1012429E0934CA04201D1F0
:101BA000022424E0914CA04202D103241FE046E02D
:101BB0008F4CA04201D1042419E08E4CA04201D1E7
:101BC000052414E08C4CA04201D106240FE08B4C7C
:101BD000A04201D107240AE0894CA04201D1082487
:101BE00005E0884CA04201D1092400E00A24B44059
:101BF0003C43C5F80848D8F800409C434D68ED03C5
:101C000000D51C43C8F80040724D2D1D2C689C4324
:101C10004E68B60300D51C432C60D9F800409C43A5
:101C20004D68ED0200D51C43C9F80040DAF80040C9
:101C30009C434D68AD0200D51C43CAF80040521CBD
:101C4000102AFFF43CAFBDE8F88F2DE9F04F0023D8
:101C5000DFF888810F274FF0010C0CFA03F201EA3C
:101C6000020494427ED1066803254FEA430905FA2F
:101C700009F5AE430660DE0800EB8609D9F820A01E
:101C80005E074FEAD66B3E4607FA0BFB2AEA0B0AC1
:101C9000C9F820A0D0F8089029EA0509C0F80890F2
:101CA000D0F8049029EA0209C0F80490C268AA4357
:101CB000C26023F0030202EB0805D5F808284FEABA
:101CC00083794FEA197906FA09F606EA020A444AC4
:101CD000904201D100222DE0424A904201D10122DE
:101CE00028E0414A904201D1022223E03F4A90423B
:101CF00001D103221EE03E4A904201D1042219E0A4
:101D00003C4A904201D1052214E03B4A904201D165
:101D100006220FE0394A904201D107220AE0384AF0
:101D2000904201D1082205E0364A904201D10922B1
:101D300000E00A2202FA09F2524516D1D5F8082825
:101D4000B243C5F80828234A1568A5431560121D3B
:101D50001568A5431560121D1568A5431560121D71
:101D6000156800E001E0A54315605B1C102BFFF433
:101D700074AFBDE8F08F0069084201D001207047C0
:101D800000207047002A01D08161704709048161F9
:101D9000704742694A404261704708B541F4803259
:101DA0000092009AC261C1610099C161C16900914C
:101DB000C069C00301D5002008BD012008BD7047DF
:101DC00010B5044914310A68024202D00860FFF7D6
:101DD000F6FF10BD003C0140443802400030014095
:101DE000000002400004024000080240000C0240D3
:101DF000001002400014024000180240001C024083
:101E0000002002400024024070B5AF4C606840F4EE
:101E100000706060606840F480706060FEF74AFBAC
:101E200005464FF47A7606E0FEF744FB401BB042CD
:101E300001D9032070BD6068C0430007F4D40020BE
:101E400070BD70B5A04C606820F400706060606880
:101E500040F480706060FEF72DFB05464FF47A7603
:101E600006E0FEF727FB401BB04201D9032070BDFE
:101E70006068C0430007F4D5002070BD9248016837
:101E800041F40071016070478F48016821F40071CE
:101E9000016070478C48016841F40061016070473F
:101EA0008948016821F40061016070478648016833
:101EB00041F48061016070478348016821F48061CA
:101EC00001607047F8B58148016841F080510160B8
:101ED000006800F0805000907B4C206840F4803017
:101EE0002060FEF7E7FA05464FF47A7606E0FEF743
:101EF000E1FA401BB04201D90320F8BD6068C0037D
:101F0000F5D5206840F400302060FEF7D3FA05468E
:101F100006E0FEF7CFFA401BB04201D90320F8BD1E
:101F200060688003F5D50020F8BDF8B56748016802
:101F300041F080510160006800F080500090624CD8
:101F4000206820F400302060FEF7B4FA05464FF414
:101F50007A7606E0FEF7AEFA401BB04201D90320C4
:101F6000F8BD60688003F5D4206820F480302060DC
:101F7000FEF7A0FA054606E0FEF79CFA401BB042C9
:101F800001D90320F8BD6068C003F5D40020F8BD76
:101F90002DE9F843074688464C48016841F08051D6
:101FA0000160006800F080500090474C606840F489
:101FB00040206060206840F440202060FEF77AFAFC
:101FC00005464FF47A7607E0FEF774FA401BB042FC
:101FD00002D90320BDE8F8836068C0F3814003287C
:101FE000F2D0206840F603418843384320603848E7
:101FF000016841F004010160B8F1010F06D020BF73
:10200000016821F0040101600020E3E730BFF7E739
:102010002D48006800F440407047F8B506462B484C
:10202000016841F080510160006800F0805000902C
:10203000264838380068C0F38100022842D0234C7B
:10204000403C206820F080702060FEF733FA05469F
:1020500006E0FEF72FFA401B022801D90320F8BD45
:1020600020688001F5D4184D286820F440403043A2
:102070002860286800F440400090206840F080709C
:102080002060FEF717FA064606E0FEF713FA801BFB
:10209000022801D90320F8BD20688001F5D5FEF79C
:1020A00009FA04464FF47A7606E0FEF703FA001BBD
:1020B000B04201D90320F8BD6868C0434004F4D49D
:1020C0000020F8BD0120F8BD0070004040380240FB
:1020D00010ED00E010B5F748016841F081010160A2
:1020E000F44A0021083211600268F34B1A40026082
:1020F000021D11601368F14C23431360ED4A8432D2
:1021000011601368EE4C23431360026822F48022AE
:102110000260E8480C300160EB49EA48086010BDF5
:102120002DE9F84F0446DFF8A483E24DA8F1040737
:102130002078C0075DD0D8F80000C0F381000128E6
:1021400008D0D8F80000C0F3810002280AD138680E
:10215000400207D5286880034BD5606878BB012012
:10216000BDE8F88F6068B0F5803F11D0A8B1B0F538
:10217000A02F1BD0286820F480302860286820F425
:1021800080202860606830B3FEF794F906461EE0B0
:10219000286840F480302860F4E7286820F4803014
:1021A0002860286820F480202860EBE7286840F445
:1021B00080202860286840F480302860E2E718E03A
:1021C000FEF778F9801B642801D90320C8E7286846
:1021D0008003F5D50DE0FEF76DF9064606E0FEF743
:1021E00069F9801B642801D90320B9E728688003B6
:1021F000F5D42078800755D5D8F800004FF0F809BD
:1022000010F00C0F08D0D8F80000C0F381000228AD
:1022100016D13868400213D42868800704D5E068D6
:10222000012801D001209BE7286899FAA9F22169C9
:10223000B2FA82F220F0F80091400843286031E0C1
:10224000E068E8B1286840F001002860FEF732F944
:10225000064606E0FEF72EF9801B022801D903206E
:102260007EE728688007F5D5286899FAA9F22169E0
:10227000B2FA82F220F0F80091400843286011E0A1
:10228000286820F001002860FEF714F9064606E0F1
:10229000FEF710F9801B022801D9032060E72868A7
:1022A0008007F5D42078000730D5DFF820926069E8
:1022B00009F16C09A8B1D9F8000040F00100C9F893
:1022C0000000FEF7F7F8064606E0FEF7F3F8801B7D
:1022D000022801D9032043E7D9F800008007F4D58C
:1022E00014E0D9F8000020F00100C9F80000FEF762
:1022F000E1F8064606E0FEF7DDF8801B022801D96A
:1023000003202DE7D9F800008007F4D42078400797
:1023100078D56E483830016841F08051016000681E
:1023200000F0805000906A4E306840F48070306059
:10233000FEF7C0F8814607E0FEF7BCF8A0EB090005
:10234000642801D903200BE73068C005F4D5DFF815
:102350007C91A06809F16809012816D0E0B1052830
:1023600027D0D9F8000020F00100C9F80000D9F802
:10237000000020F00400C9F80000A06841F2883A8B
:1023800080B3FEF797F8064627E0D9F8000040F042
:102390000100C9F80000F0E7D9F8000020F00100C2
:1023A000C9F80000D9F8000020F00400C9F80000C6
:1023B000E3E7D9F8000040F00400C9F80000D9F8BC
:1023C000000040F00100C9F80000D6E7FEF772F8FF
:1023D000801B504501D90320C2E6D9F800008007D0
:1023E000F4D50FE0FFE7FEF765F8064606E0FEF7D6
:1023F00061F8801B504501D90320B1E6D9F80000EF
:102400008007F4D4A069E8B3D8F80010C1F38101C3
:10241000022970D0022807D0286820F08070286038
:10242000FEF748F8044660E0286820F080702860D5
:10243000FEF740F8064606E0FEF73CF8801B02284F
:1024400001D903208CE628688001F5D4D4E907017E
:1024500047F6C0724FF0FF3392FAA2F20843616A66
:10246000B2FA82F29140A26A03EB52024FF4403377
:1024700093FAA3F3B3FA83F39A40114308434FF05E
:10248000706200E034E092FAA2F2E16AB2FA82F2FB
:10249000914008433860286840F080702860FEF75B
:1024A00009F8044616E0FEF705F8001B022811D9CA
:1024B000032055E600380240FFFFF6FA10300024F2
:1024C000003000200024F400000002200838024000
:1024D0000070004028688001E5D509E0FDF7EAFFBB
:1024E000001B022801D903203AE628688001F5D4B0
:1024F000002035E6FFE7012032E630B5F7480068F6
:1025000010F00C01F6481AD0F64C042916D0082910
:1025100015D1F24A121F116801F03F0113685D02E4
:1025200047F6C0730CD5B4FBF1F01168194093FA6B
:10253000A3F3B3FA83F3D94048430BE0204630BD00
:10254000B0FBF1F01168194093FAA3F3B3FA83F3E7
:10255000D940484311684FF4403292FAA2F201F494
:102560004031B2FA82F2D140491C4900B0FBF1F08F
:1025700030BD2DE9F04704460E46DFF86C83D8F8ED
:10258000000000F00F00B0420FD2D8F8000020F099
:102590000F003043C8F80000D8F8000000F00F002A
:1025A000B04202D00120BDE8F0872078CB4F8007F1
:1025B00005D53868A16820F0F0000843386020781D
:1025C000C0074AD0C54960680839012806D00228EA
:1025D00009D0096889070BD40120E4E70968890359
:1025E00006D40120DFE70968890101D40120DAE778
:1025F000396821F0030101433960FDF75BFF0546AF
:10260000606841F28839012809D0022814D020E0FE
:10261000FDF750FF401B484501D90320C3E7386848
:10262000C0F381000128F3D117E0FDF743FF401B01
:10263000484501D90320B6E73868C0F38100022875
:10264000F3D10AE0FDF736FF401B484501D90320CE
:10265000A9E7386810F00C0FF4D1D8F8000000F0AA
:102660000F00B0420ED9D8F8000020F00F00304320
:10267000C8F80000D8F8000000F00F00B04201D008
:10268000012090E72078400705D53868E16820F4FC
:10269000E050084338602078000706D53868216983
:1026A00020F4604040EAC1003860FFF726FF396837
:1026B000F02292FAA2F201F0F001B2FA82F2D140D5
:1026C0008A4A515CC8408A4908600F20FDF7B3FE72
:1026D000002068E7F0B587B00C4615467F4B7F4E6B
:1026E000002128330222032700281AD0186840F05E
:1026F00004001860186800F00400019010020290B5
:10270000039205970491069102A97A48FFF7C8F948
:10271000306844EAC50120F078400843306007B0D3
:10272000F0BD186840F001001860186800F0010062
:1027300001904FF4807002900392059704910691E6
:1027400002A96D48FFF7ACF930682C4320F0EC602B
:1027500020433060E3E761480838016841F4002114
:10276000016070475D480838016821F4002101606C
:1027700070475F480068704700B5FFF7FAFF574998
:1027800009684FF4E05292FAA2F201F4E051B2FA71
:1027900082F2D140594A515CC84000BD00B5FFF7F4
:1027A000E8FF4E4909684FF4604292FAA2F201F440
:1027B0006041B2FA82F2D140504A515CC84000BD3B
:1027C00030B50F210160454B083B19684A034FF0B3
:1027D000000103D54FF4A022426007E01A68D2033B
:1027E00003D54FF48032426000E041601A68D4079C
:1027F0004FF0010201D0C26000E0C1601C68F82502
:1028000095FAA5F504F0F804B5FA85F5EC400461F5
:10281000324C683425686D0702D50524846005E0D4
:102820002468E40701D0826000E081602B4C6C34A6
:102830002468E40701D0426100E041611968C901E0
:1028400002D50221816100E082612449091F0A68E2
:1028500002F48002C2610A6802F03F0202620A6862
:1028600047F6C0731A4093FAA3F3B3FA83F3DA403E
:1028700042620A684FF4403302F4403293FAA3F301
:1028800002F58032B3FA83F35200DA4082620968BB
:102890004FF0706292FAA2F201F07061B2FA82F225
:1028A000D140C16230BD0F2202600C4A136803F0B0
:1028B00003034360136803F0F0038360136803F4B9
:1028C000E053C360126802F46042D2080261064815
:1028D000006800F00F0008607047000008380240F0
:1028E0000024F40040787D01003C0240FA490208CF
:1028F0000000022000080240000002400A4A0208CC
:10290000EAE710B505480068000605D5FFF7F8FFAF
:1029100002498020891C087010BD00000C3802405C
:102920002DE9F84F04464FF0000B0025DFF8209406
:102930002078C0070FD0D9F8000020F40000C9F8B3
:102940000000D9F80000616B0843C9F80000606B13
:1029500008B94FF0010B2068FE4E00030DD530681A
:10296000E16B20F4401008433060E06BB0F5801F4D
:1029700001D14FF0010B00B901252068C0020DD52F
:102980003068216C20F4400008433060206CB0F5C2
:10299000800F01D14FF0010B00B901252068C10162
:1029A00001D54FF0010B80065DD5E948383001684C
:1029B00041F080510160006800F080500090DFF825
:1029C0009883D8F8000040F48070C8F80000FDF744
:1029D00071FD074607E0FDF76DFDC01B642802D9B5
:1029E0000320BDE8F88FD8F80000C005F3D5D94F13
:1029F0001C3F386800F4407020B3218E01F4407110
:102A000081421FD0386820F44070396841F4803129
:102A10003960396821F48031396038603868C0071E
:102A200010D0FDF747FD804641F2883A07E0FDF7F8
:102A300041FDA0EB0800504501D90320D1E73868DB
:102A40008007F4D5206BC0F3012103297ED0D9F88B
:102A5000000020F4F810C9F800003868218EC1F396
:102A60000B01084338602078C00607D5306820F095
:102A7000807030603068A16B08433060208841046A
:102A8000B64805D50168626E21F4403111430160FA
:102A90002188090405D50168A26E21F44021114363
:102AA00001602168C90305D50168E26E21F4401177
:102AB000114301602168890305D50168226F21F463
:102AC0004001114301602178490605D50168626C17
:102AD00021F00301114301602178090605D5016841
:102AE000A26C21F00C01114301602188C90505D5B4
:102AF0000168E26C21F030011143016021888905F1
:102B000005D50168226D21F0C001114301602188C3
:102B1000490505D50168626D21F4407111430160DA
:102B20002188090505D50168A26D21F44061114392
:102B300001602188C90405D50168E26D21F4405186
:102B4000114301602188890407D500E01CE0016879
:102B5000226E21F44041114301602168490205D5EC
:102B60000168A26F21F08061114301602168890230
:102B700015D50168E26F21F0006111430160E16F3A
:102B8000B1F1006F0AD00AE0D9F80010744A21F4BC
:102B9000F81110400143C9F800105EE701252168D3
:102BA0000A0700D50125490305D50168626F21F0A8
:102BB0004071114301602168090206D50168D4F80B
:102BC000802021F08051114301602168490106D520
:102BD0000168D4F8842021F000511143016020687D
:102BE000000106D53068D4F8881020F00070084342
:102BF00030602068C00006D53068D4F88C1020F012
:102C0000806008433060BBF1010F47F6C07A4FF493
:102C100040374FF070684FF0E04903D02068B0F1C2
:102C2000007F7CD14A480838016821F0806101604A
:102C3000FDF740FC834607E0FDF73CFCA0EB0B00F2
:102C4000642801D90320CCE6414808380068000117
:102C5000F2D42078C10743482DD0616B59BB01687D
:102C600097FAA7F201F44031B2FA82F2D140026839
:102C700098FAA8F302F07062B3FA83F3DA409AFA92
:102C8000AAFC6368BCFA8CFC03FA0CF397FAA7FC65
:102C9000BCFA8CFC01FA0CF10B4398FAA8F1B1FADA
:102CA00081F18A401343A16899FAA9F2B2FA82F23B
:102CB00091400B43036021680A0303D5E26BB2F530
:102CC000801F05D0C90239D5216CB1F5800F35D1EF
:102CD000016897FAA7F201F44031B2FA82F2D140CA
:102CE000026899FAA9F302F0E042B3FA83F3DA40FA
:102CF0009AFAAAFC6368BCFA8CFC03FA0CF397FA04
:102D0000A7FCBCFA8CFC01FA0CF198FAA8FC0B4366
:102D1000E168BCFA8CFC01FA0CF10B4300E081E0A5
:102D200099FAA9F1B1FA81F18A401343036031683D
:102D3000626A21F01F01521E114331602168C901EE
:102D40003CD5016898FAA8F201F070610CE000002F
:102D5000083802408C380240007000409038024031
:102D6000FFFCFF0F84380240B2FA82F2D1400268C1
:102D700099FAA9F302F0E042B3FA83F3DA409AFA3F
:102D8000AAFC636897FAA7FBBCFA8CFCBBFA8BFB26
:102D900003FA0CF3D4F810C00CFA0BFC43EA0C0352
:102DA00098FAA8FCBCFA8CFC01FA0CF10B4399FAD6
:102DB000A9F1B1FA81F18A401343036021688901C6
:102DC0001BD59AFAAAF2616897FAA7F3B2FA82F2CF
:102DD000B3FA83F3914022699A4098FAA8F3114319
:102DE000E268B3FA83F39A4099FAA9F31143A2680F
:102DF000B3FA83F39A4011430160F948016841F046
:102E000080610160FDF756FB834607E0FDF752FB4A
:102E1000A0EB0B00642801D90320E2E5F04800682C
:102E20000001F3D5012D7CD1ED4D286820F08050B4
:102E30002860FDF73FFB834607E0FDF73BFBA0EB77
:102E40000B00642801D90320CBE52868C04380002B
:102E5000F3D52168E3480A0301D5E26B1AB1C90230
:102E600036D5216CA1BB016897FAA7F201F4403175
:102E7000B2FA82F2D140026899FAA9F302F0E04274
:102E8000B3FA83F3DA409AFAAAFC6369BCFA8CFCC1
:102E900003FA0CF397FAA7FCBCFA8CFC01FA0CF1CC
:102EA00098FAA8FC0B43A169BCFA8CFC01FA0CF15E
:102EB0000B4399FAA9F1B1FA81F18A4013430360F7
:102EC000316821F4F852A16A491E42EA01213160B9
:102ED0002168890234D5E16FB1F1006F30D101680A
:102EE00098FAA8F201F07061B2FA82F2D140026859
:102EF00099FAA9F302F0E042B3FA83F3DA409AFABE
:102F0000AAFC636997FAA7FBBCFA8CFCBBFA8BFBA3
:102F100003FA0CF3D4F820C00CFA0BFC43EA0C03C0
:102F200000E054E098FAA8FCBCFA8CFC01FA0CF121
:102F30000B4399FAA9F1B1FA81F18A401343036076
:102F40002178090730D5016898FAA8F201F070617C
:102F5000B2FA82F2D140026897FAA7F302F4403243
:102F6000B3FA83F3DA409AFAAAFC636997FAA7F7EF
:102F7000BCFA8CFCB7FA87F703FA0CF3BA40134398
:102F800098FAA8F2B2FA82F2914099FAA9F20B43A8
:102F9000E169B2FA82F291400B4303603068E16A62
:102FA00020F4403008433060286840F080502860AA
:102FB000FDF780FA044606E0FDF77CFA001B642862
:102FC00001D903200DE52868C0438000F4D4002017
:102FD00007E570B584490160824A121F136847F6FD
:102FE000C07191FAA1F40B40B4FA84F4E340436059
:102FF000136803F440344FF4403393FAA3F5B5FA61
:1030000085F5EC40046114684FF0706696FAA6F5F9
:1030100004F07064B5FA85F5EC40C46012684FF0B6
:10302000E04595FAA5F402F0E042B4FA84F4E240F7
:1030300082606C4A14680C4091FAA1F1B1FA81F1F6
:10304000CC404461116893FAA3F401F44031B4FA1E
:1030500084F4E1400162116896FAA6F401F070610F
:10306000B4FA84F4E1408161116895FAA5F201F0A7
:10307000E041B2FA82F2D140C1615A4A121D116890
:103080001F2494FAA4F401F01F01B4FA84F4E1407F
:10309000416211684FF4F85494FAA4F401F4F85121
:1030A000B4FA84F4E1408162116893FAA3F301F465
:1030B0004031B3FA83F3D940C162116801F4401181
:1030C000C163116801F440010164454B083319687C
:1030D00001F400014163111D0C6804F4403444669E
:1030E0000C6804F4402484660C6804F44014C4663C
:1030F0000C6804F4400404670C6804F0030444649E
:103100000C6804F00C0484640C6804F03004C4649B
:103110000C6804F0C00404650C6804F44074446551
:103120000C6804F4406484650C6804F44054C4657D
:103130000C6804F4404404660C6804F0407444676E
:103140000C6804F0806484670C6804F00064C46751
:103150000C6804F08054C0F88040096801F0005108
:10316000C0F88410116801F00071C0F8881011686F
:1031700001F08061C0F88C10196801F4F811194B46
:10318000183B1B6803F440730B4303631168C901C8
:1031900002D40021816370BD4FF08071816370BDE6
:1031A0002DE9F047064600200E4F0D4A4FF48019D6
:1031B000DFF838803D1D0E4B121D0E4CB6F5002F6A
:1031C000A7F1040C61D1296801F44011A1B149456E
:1031D00032D0B1F5001F50D0B1F5401F55D14EE0AF
:1031E0000038024088380240F1FFFF1C0080BB001D
:1031F0000024F40040787D011068400205D4106876
:1032000000F03F00B3FBF0F004E0106800F03F0076
:10321000B4FBF0F03968C1F30361D7F800A0CAF33A
:10322000881A0AFB00FABAFBF1F12868C0F30420FF
:10323000401CB1FBF0F028E01068400205D4106893
:1032400000F03F00B3FBF0F004E0106800F03F0036
:10325000B4FBF0F0DCF80010C1F30361DCF800A06F
:10326000CAF3881A0AFB00FABAFBF1F1286800F0E9
:103270001F00401CB1FBF0F007E0404605E010687D
:10328000400201D4184600E020464E4510D129687E
:1032900001F4400171B1B1F5800F29D0B1F5000FF3
:1032A00046D0B1F5400F03D11068400242D4184611
:1032B000BDE8F0871068400205D4106800F03F00B8
:1032C000B3FBF0F004E0106800F03F00B4FBF0F056
:1032D0003968C1F303613A68C2F388124243B2FB12
:1032E000F1F12868C0F30420401CB1FBF0F0DFE7E7
:1032F0001068400205D4106800F03F00B3FBF0F006
:1033000004E0106800F03F00B4FBF0F0DCF80010BF
:10331000C1F30361DCF80020C2F388124243B2FB20
:10332000F1F1286800F01F00401CB1FBF0F0BFE78E
:103330004046BDE72046BBE72DE9F84F0446DFF8DD
:10334000B883A8F104072078A7F10405C0075CD072
:10335000D8F80000C0F38100012808D0D8F8000098
:10336000C0F38100022809D13868400206D52868D8
:1033700080034AD5606870BB012064E46068B0F5E2
:10338000803F11D0A8B1B0F5A02F1BD0286820F441
:1033900080302860286820F480202860606830B37E
:1033A000FDF788F806461EE0286840F48030286063
:1033B000F4E7286820F480302860286820F4802012
:1033C0002860EBE7286840F480202860286840F4F3
:1033D00080302860E2E718E0FDF76CF8801B642875
:1033E00001D903202FE428688003F5D50DE0FDF70F
:1033F00061F8064606E0FDF75DF8801B642801D9F8
:10340000032020E428688003F5D42078800755D570
:10341000D8F800004FF0F80910F00C0F08D0D8F8D9
:103420000000C0F38100022816D13868400213D48E
:103430002868800704D5E068012801D00120ECE469
:10344000286899FAA9F22169B2FA82F220F0F8000C
:1034500091400843286031E0E068E8B1286840F016
:1034600001002860FDF726F8064606E0FDF722F881
:10347000801B022801D90320CFE428688007F5D5F6
:10348000286899FAA9F22169B2FA82F220F0F800CC
:1034900091400843286011E0286820F0010028606E
:1034A000FDF708F8064606E0FDF704F8801B022841
:1034B00001D90320B1E428688007F5D420780007FB
:1034C0002AD58D4E60696C3698B1306840F00100A5
:1034D0003060FCF7EFFF814607E0FCF7EBFFA0EB65
:1034E0000900022801D9032097E430688007F4D549
:1034F00012E0306820F001003060FCF7DBFF81460D
:1035000007E0FCF7D7FFA0EB0900022801D9032050
:1035100083E430688007F4D42078400778D5764873
:103520003830016841F080510160006800F080503F
:103530000090724E306840F480703060FCF7BAFF43
:10354000814607E0FCF7B6FFA0EB0900642801D92B
:10355000032062E43068C005F4D5DFF89C91A068D0
:1035600009F16809012816D0E0B1052827D0D9F85B
:10357000000020F00100C9F80000D9F8000020F098
:103580000400C9F80000A06841F2883A80B3FCF753
:1035900091FF064627E0D9F8000040F00100C9F885
:1035A0000000F0E7D9F8000020F00100C9F80000A1
:1035B000D9F8000020F00400C9F80000E3E7D9F8CA
:1035C000000040F00400C9F80000D9F8000040F005
:1035D0000100C9F80000D6E7FCF76CFF801B5045DE
:1035E00001D9032019E4D9F800008007F4D50FE0D1
:1035F000FFE7FCF75FFF064606E0FCF75BFF801B7A
:10360000504501D9032008E4D9F800008007F4D41C
:10361000A069E8B3D8F80010C1F38101022968D08D
:10362000022807D0286820F080702860FCF742FF4D
:10363000044659E0286820F080702860FCF73AFFC3
:10364000064606E0FCF736FF801B022801D903205E
:10365000B8E428688001F5D4D4E9070147F6C072C0
:103660004FF0FF3392FAA2F20843616AB2FA82F293
:103670009140A26A03EB52024FF4403393FAA3F352
:10368000B3FA83F39A40114308434FF0706200E0AD
:103690002DE092FAA2F2E16AB2FA82F291404FF082
:1036A000E0420843216B92FAA2F2B2FA82F2914010
:1036B00008433860286840F080702860FCF7FAFE04
:1036C000044606E0FCF7F6FE001B022801D90320A1
:1036D00078E428688001F5D509E0FCF7EBFE001BD3
:1036E000022801D903206DE428688001F5D4002068
:1036F00068E4012066E400000838024000700040E1
:103700002DE9F04104460E4617469846069D1DE0F9
:10371000681C1BD02DB1FCF7CDFEA0EB0800A84221
:1037200014D32068016821F4D07101602068816899
:1037300021F001018160202084F8690084F86A008A
:10374000002084F868000320BDE8F0812068C0698B
:1037500036EA000004D00020B842D9D00020F3E7B8
:103760000120F9E7F8B504460026E666FCF7A2FE5C
:103770000746206800686FF07E4500070AD50022E2
:103780003B464FF4001120460095FFF7B9FF08B102
:103790000320F8BD2068006840070AD500223B4698
:1037A0004FF4800120460095FFF7AAFF08B10320DF
:1037B000F8BD202068346070A07026700020F8BD2D
:1037C00090F82410C90706D001684A68836A22F479
:1037D00000321A434A6090F82410890706D5016820
:1037E0004A68C36A22F480321A434A6090F824106F
:1037F000490706D501684A68036B22F480221A4300
:103800004A6090F82410090706D501684A68436B9E
:1038100022F400421A434A6090F82410C90606D5E3
:1038200001688A68836B22F480521A438A6090F898
:103830002410890606D501688A68C36B22F40052F9
:103840001A438A6090F82410490611D501684A6825
:10385000036C22F480121A434A60016CB1F5801F98
:1038600006D101684A68436C22F4C0021A434A60D8
:1038700090F82410090606D501684A68806C22F485
:10388000002202434A6070472DE9F04104461021AE
:1038900000220025A3682069E6690343606930437C
:1038A000034320680668FE4F3E401E4306602068C2
:1038B0004368E66823F4405333434360A369206AB6
:1038C00003432068866826F430661E438660F54F01
:1038D000CE022068F44BB84212D11B6813F00303E8
:1038E00006D0012B08D0022B04D0032B01D105E018
:1038F0000121A9E00221A7E00421A5E00821A3E01D
:10390000EA4FB84212D11B6813F00C0306D0042B07
:1039100008D0082B04D00C2B01D105E0002193E046
:10392000022191E004218FE008218DE0E04FB842B0
:1039300012D11B6813F0300306D0102B08D0202BB7
:1039400004D0302B01D105E000217DE002217BE095
:10395000042179E0082177E0D64FB84212D11B68E4
:1039600013F0C00306D0402B08D0802B04D0C02B0E
:103970006AD105E0002167E0022165E0042163E0EF
:10398000082161E0CC4FB84215D11B6813F4407395
:1039900009D0B3F5807F0AD0B3F5007F05D0B3F529
:1039A000407F51D105E000214EE002214CE004218E
:1039B0004AE0082148E0C14FB84215D11B6813F412
:1039C000406309D0B3F5806F0AD0B3F5006F05D01E
:1039D000B3F5406F38D105E0012135E0022133E035
:1039E000042131E008212FE0B54FB84215D11B6802
:1039F00013F4405309D0B3F5805F0AD0B3F5005FEC
:103A000005D0B3F5405F1FD105E000211CE0022185
:103A10001AE0042118E0082116E0AA4FB84213D199
:103A20001B6813F4404308D0B3F5804F09D0B3426C
:103A300005D0B3F5404F07D105E0002104E0022195
:103A400002E0042100E00821E369B34240D10929E2
:103A500035D2DFE801F0050F1934213434342B005E
:103A6000FEF78AFE4100606801EB5001B1FBF0F007
:103A700082B225E0FEF792FE4100606801EB500142
:103A8000B1FBF0F082B21BE060688F4901EB50019E
:103A9000B1FBF0F082B213E0FEF72FFD4100606849
:103AA00001EB5001B1FBF0F082B209E060684FF425
:103AB000803101EB5001B1FBF0F082B200E0012552
:103AC00022F00F00C2F3420108432168C8603EE0C3
:103AD00009293BD2DFE801F005111D3A263A3A3AAE
:103AE0003200FEF749FE0146606801EB5001B1FB70
:103AF000F0F0216880B2C86029E0FEF74FFE014671
:103B0000606801EB5001B1FBF0F0216880B2C86041
:103B10001DE061686D4A02EB5102B2FBF1F189B21E
:103B2000C16014E0FEF7E9FC0146606801EB50015A
:103B3000B1FBF0F0216880B2C86008E0616806EB74
:103B40005102B2FBF1F189B2C16000E001252846C3
:103B5000FAE5704710B50446002C03D094F86900CC
:103B600010B107E0012010BD002084F86800204655
:103B70000AF02AFF242084F869002068016821F0F7
:103B8000010101602046FFF77FFE012817D0606A1F
:103B900010B12046FFF714FE2068416821F49041DF
:103BA00041602068816821F02A01816020680168F5
:103BB00041F0010101602046BDE81040D2E501203E
:103BC00010BD10B50446002C03D094F8690010B164
:103BD00007E0012010BD002084F8680020460AF0AC
:103BE000F3FE242084F869002068016821F00101B7
:103BF00001602046FFF748FE01281CD0606A10B122
:103C00002046FFF7DDFD2068416821F490414160C6
:103C10002068816821F0220181602068816841F07C
:103C2000080181602068016841F0010101602046BF
:103C3000BDE8104096E5012010BD70B504460D4664
:103C4000002C03D094F8690010B107E0012070BD8A
:103C5000002084F8680020460AF0B6FE242084F88C
:103C600069002068016821F0010101602046FFF72A
:103C70000BFE01283BD0606A10B12046FFF7A0FD83
:103C80002068416821F4006141602068816821F06A
:103C90002A0181602068416841F48041416017E059
:103CA000F369FFEF001001409038024000440040EB
:103CB00000480040004C004000500040001401400B
:103CC00000780040007C00400048E8010024F40037
:103CD0002068416821F02001294341602068016883
:103CE00041F0010101602046BDE870403AE5012045
:103CF00070BD70B504460E461546002C03D094F8EE
:103D0000690010B107E0012070BD002084F8680050
:103D100020460AF059FE242084F8690020680168D2
:103D200021F0010101602046FFF7AEFD012812D00D
:103D3000606A10B12046FFF743FD2068416821F416
:103D4000904141602068816821F02A018160B5F5C9
:103D5000006F02D006E0012070BD2068416866F364
:103D60001F6141602068016821F4006129430160FE
:103D70002068016841F0010101602046BDE8704003
:103D8000F0E42DE9F04104460D4616461F46002C8E
:103D900003D094F8690010B107E00120D4E40020BA
:103DA00084F8680020460AF00FFE242084F8690099
:103DB0002068016821F0010101602046FFF764FDE1
:103DC000012821D0606A10B12046FFF7F9FC206875
:103DD000816841F4804181602068816821F400415C
:103DE00029438160700540EA074120680268FE4B64
:103DF0001A400A4302602068016841F00101016035
:103E00002046BDE8F041ADE401209DE4704770B567
:103E10000446002C18D0242084F86900206801682A
:103E200021F00101016020680025056020684560DF
:103E3000206885602046FFF7E9FF6834656065709B
:103E4000A5702570002070BD012070BD2DE9F843DC
:103E500004460D4691461E4694F86900202802D07B
:103E60000220BDE8F883B5B1B9F1000F13D094F882
:103E70006800012811D0012084F868000027E76657
:103E8000212084F86900FCF715FB8046A4F85090C7
:103E9000A4F852901AE00120E3E70220E1E7401E77
:103EA000A4F8520000224346802120460096FFF7E6
:103EB00027FC08B10320D4E7A068B0F5805F01D1EA
:103EC000206988B1216815F8010B8862B4F85200A6
:103ED0000028E4D100224346402120460096FFF707
:103EE0000FFC40B10320BCE7216835F8020BC0F39A
:103EF00008008862EAE7202068346070277000209C
:103F0000AFE72DE9F84F04460D461646984694F85B
:103F10006A00202802D00220BDE8F88FFDB1F6B17A
:103F200094F8680001281CD001204C3420774FF011
:103F30000009C4F820902220A077FCF7BBFA824643
:103F4000A681E681FF2254F8440C4C3C4FF4805784
:103F5000B8420DD1206930B1A4F85C201BE00120EB
:103F6000DAE70220D8E740F2FF10A4F85C0012E084
:103F70007F2118B1B0F1805F08D00CE0206910B14A
:103F8000A4F85C1007E0A4F85C2004E0206928B1E4
:103F90003F20A4F85C00B4F85C601AE0A4F85C1060
:103FA000F9E7401EA4F85A0000225346202120467B
:103FB000CDF80080FFF7A4FB08B10320ACE7A068B0
:103FC000B84201D1206978B12068406A304005F8D4
:103FD000010BB4F85A000028E3D1202084F86A00CD
:103FE00084F86890002097E72068406A304025F800
:103FF000020BEEE790F86930202B01D002207047C9
:10400000A9B1A2B190F86830012B12D040F84C1F32
:104010008280C2800021016221224277017750F81C
:104020004C0C016841F080010160002070470120C4
:1040300070470220704790F86A30202B01D0022090
:104040007047B9B1B2B190F86830012B14D0012398
:1040500080F868304165A0F85820A0F85A20FF2267
:104060008168B1F5805F09D07F2389B1B1F1805FAC
:1040700016D01AE00120704702207047016911B183
:10408000A0F85C2011E040F2FF11A0F85C100CE0F9
:10409000016911B1A0F85C3007E0A0F85C2004E0F1
:1040A0000169D1B13F21A0F85C100021C166222234
:1040B00080F86A2080F8681001680A6842F480720B
:1040C0000A6001688A6842F001028A60006801683B
:1040D00041F02001016000207047A0F85C30E4E767
:1040E000704701680A6822F490720A6001688A6861
:1040F00022F001028A60202180F86A10704701686E
:104100000A6822F0C0020A60202180F86910704716
:1041100010B5846B0020523420812080E07D523C19
:10412000212806D120688068000602D52046FFF7C6
:10413000E6FF94F86A00222806D1206880684006CD
:1041400002D52046FFF7CDFFE06E40F01000E0669C
:104150002046FFF7C5FF10BD704710B5806BFFF715
:10416000FBFF10BD7047014610B5886B09680968F0
:10417000C9050DD40021A0F8521001688A6822F008
:1041800080028A600068016841F04001016010BD52
:10419000FFF7E8FF10BDF7B5044694F86900202842
:1041A00001D00220FEBD019931B32AB394F8680012
:1041B000012836D001204C3420772160A280E28093
:1041C000002525622120607763690848D863636908
:1041D0000748186463690748D86460690565134631
:1041E00054F84C0C283008E0FFFF00FC6741000841
:1041F0005B4100081141000811E066690246304643
:10420000FCF716FC54F84C1C40200862257754F843
:104210004C0C816841F0800181600020FEBD0120CE
:10422000FEBD0220FEBD704710B5806BFFF7FBFF9F
:1042300010BD7047014610B5886B09680968C9054B
:1042400014D40021A0F85A1001680A6822F4807280
:104250000A6001688A6822F001028A6001688A683F
:1042600022F040028A60202180F86A10FFF7E1FF07
:1042700010BD37B50446134694F86A00202801D0D3
:1042800002203EBD019A92B38BB394F868000128D6
:1042900030D0012084F868006265A4F85830002509
:1042A000E566222084F86A00616EFB48C863616E8F
:1042B000FA480864616EFA48C864606E0565216852
:1042C000606E2431FCF7B4FB84F868502068016804
:1042D00041F4807101602068816841F001018160D2
:1042E0002068816841F04001816000203EBDFFE709
:1042F0000120FBE70220F9E790F86810012907D0B8
:10430000012180F8681090F86910212902D009E095
:104310000220704701688A68120603D58A6822F075
:1043200080028A6090F86A10222911D101688A6897
:1043300052060DD50A6822F480720A6001688A6804
:1043400022F001028A6001688A6822F040028A60D5
:10435000002180F868100020704790F8681001294B
:1043600007D0012180F8681090F86910212902D047
:1043700006E00220704701688A6842F080028A6085
:1043800090F86A10222911D102680821116201688F
:104390000A6842F480720A6001688A6842F0010289
:1043A0008A6001688A6842F040028A600068016899
:1043B000C90703D1016841F0010101600020704785
:1043C00010B5044694F8690021280ED12068816850
:1043D00009060AD5816821F080018160206E08B14C
:1043E000FCF761FB2046FFF78AFE94F86A0022285A
:1043F0000ED12068816849060AD5816821F0400104
:104400008160606E08B1FCF74EFB2046FFF769FE45
:10441000002010BD10B501680A6822F040020A6051
:10442000202180F86910FFF79DFE002010BD90F854
:104430006910212901D002207047B0F8521021B133
:104440008168B1F5805F0CD00DE001680A6822F048
:1044500080020A600068016841F0400101600020AC
:104460007047016959B1C16C4A1CC264026809787D
:10447000916230F8521F491E018000207047C16CC4
:1044800002680988C1F308019162C16C891CC1648A
:10449000EFE710B5806B0021A0F85A10A0F8521079
:1044A000FFF71EFE10BD10B5B0F85C2090F86A3022
:1044B0000168222B05D0886940F00800886102203D
:1044C00010BD8368B3F5805F01D103697BB14B6A8E
:1044D000416D13404A1C42650B70B0F85A10491EDA
:1044E0000904090CA0F85A1009D0002010BD436D32
:1044F000496A11401980416D891C4165EDE70168E9
:104500000A6822F490720A6001688A6822F0010247
:104510008A60202180F86A10FFF78BFE002010BD12
:1045200070B504462368D86919689A6800F00F05C9
:10453000002D07D1860605D58E0603D52046BDE899
:104540007040B0E7002D6AD040F201152A4266D0D3
:10455000C50707D0CD0505D501251D62E36E43F0E3
:104560000103E366830708D5D30706D02568022335
:104570002B62E36E43F00403E366430708D5D307D9
:1045800006D0256804232B62E36E43F00203E36642
:1045900003070CD501F0200302F00102134306D0FB
:1045A000236808221A62E26E42F00802E266E26EB6
:1045B000002A29D0800604D5880602D52046FFF7B8
:1045C00072FFE06E000703D420688068400620D5A3
:1045D0002046FFF786FD20688168490615D5816869
:1045E00021F040018160606E58B12E490165606E16
:1045F000FCF79FFA002807D0606E016DBDE870409F
:1046000008472046FFF76CFD70BD2046FFF768FDA8
:1046100070BD2046FFF764FD0020E06670BD020615
:1046200005D50A0603D52046BDE87040FFE64006E2
:10463000F4D54806F2D52046BDE87040EAE690F889
:10464000681001290FD0012180F86810242180F81A
:10465000691001680A6842F400520A60202180F85B
:104660006910FFF77FB80220704790F868100129A1
:104670000FD0012180F86810242180F869100168AA
:104680000A6822F400520A60202180F86910FFF7BE
:1046900069B802207047000035420008294200082E
:1046A00011410008934400080068816941F0040149
:1046B0008161EFE7014611F8690F49780843E9E79E
:1046C000C06EE7E790F86810012916D0012100F8C4
:1046D000681F2421417050F8681C0A6822F00C02FF
:1046E0000A6050F8681C0A6842F008020A6020213B
:1046F0004170002101700020CCE70220CAE790F849
:104700006810012916D0012100F8681F242141708A
:1047100050F8681C0A6822F00C020A6050F8681C05
:104720000A6842F004020A602021417000210170F1
:104730000020AFE70220ADE790F86810012910D003
:10474000012100F8681F2421417050F8681C8A6913
:1047500042F002028A612021417000210170002094
:1047600098E7022096E7002814D0242280F86920D8
:104770000268136823F0010313600268536823F092
:1047800010030B43536001680A6842F001020A609B
:10479000FEF7E8BF01207DE72DE9F04102684FF008
:1047A0008048FD4DFD4EFE4FA842DFF8F8C3FE4B9A
:1047B00009D0404507D0B04205D0B84203D060458B
:1047C00001D0984203D122F070044A682243A842E3
:1047D0001BD0404519D0B04217D0B84215D0604523
:1047E00013D0984211D0F14CA0420ED0F04CA04210
:1047F0000BD0F04CA04208D0EF4CA04205D0EF4CBB
:10480000A04202D0EE4CA04203D122F44074CA6808
:10481000224302608A68C2620A688262A84201D0AA
:10482000984201D10969016301214161BDE8F0812C
:10483000704710B50446002C03D094F8390010B12D
:1048400004E0012010BD20460CF040FE022084F858
:1048500039002068211DFFF79FFF012084F83900EF
:10486000002010BD704710B50446022084F83900BE
:104870002068016A41F21112114207D1016A9210B7
:10488000114203D1016821F0010101602046FFF7C8
:10489000E9FF002038346070207010BD022180F8DC
:1048A000391001680A6842F001020A60012180F8AB
:1048B000391000207047022180F8391001680A6A17
:1048C00041F211131A4207D10A6A9B101A4203D10E
:1048D0000A6822F001020A60012180F839100020E4
:1048E00070470168CA6842F00102CA600068016846
:1048F00041F001010160002070470168CA6822F0A0
:104900000102CA600068016A41F21112114207D126
:10491000016A9210114203D1016821F00101016086
:1049200000207047704710B5806B012180F8391066
:10493000FFF7F8FF10BD704710B5806B012180F8BC
:1049400039100DF077F810BD10B50446134694F8F1
:104950003900022804D094F83900012802D008E078
:10496000022010BD11B90BB1012010BD022084F846
:104970003900E2699348D063AFF25500E269D06430
:104980002268E0692C32FCF753F82068C16841F4D2
:104990008071C1602068016841F001010160002060
:1049A00010BD0168CA6822F48072CA6001680A6A90
:1049B00041F211131A4207D10A6A9B101A4203D11D
:1049C0000A6822F001020A60012180F839100020F3
:1049D0007047704710B50446002C03D094F8390096
:1049E00010B107E0012010BD002084F838002046F7
:1049F000FFF7EFFF022084F839002068211DFFF740
:104A0000CBFE012084F83900002010BD704710B59E
:104A10000446022084F839002068016A41F211122C
:104A2000114207D1016A9210114203D1016821F0AD
:104A3000010101602046FFF7E9FF00203834607073
:104A4000207010BD10B501238B40046A9C430462A2
:104A5000036A8A401343036210BD10B50446012265
:104A60002068FFF7EFFF4C482168814202D04E4892
:104A7000814203D1486C40F40040486420680168DA
:104A800041F001010160002010BD10B50446002274
:104A90002068FFF7D7FF41F211123F4821689310B9
:104AA000814202D04048814209D1086A104206D1B1
:104AB000086A184203D1486C20F40040486420681A
:104AC000016A114206D1016A194203D1016821F03D
:104AD00001010160002010BD10B5044600292268C4
:104AE00006D0042909D008290CD00C2913D10EE0D6
:104AF000D06840F00200D0600DE0D06840F00400C3
:104B0000D06008E0D06840F00800D06003E0D068D2
:104B100040F01000D06020680122FFF793FF1E498B
:104B20002068884202D02049884203D1416C41F478
:104B3000004141642068016841F0010101600020EA
:104B400010BD10B504460029226806D0042909D0FA
:104B500008290CD00C2913D10EE0D06820F00200F7
:104B6000D0600DE0D06820F00400D06008E0D0688C
:104B700020F00800D06003E0D06820F01000D06082
:104B800020680022FFF75EFF41F2111202482168FF
:104B9000931081421BD017E0000001400004004048
:104BA00000080040000C00400004014000400140AB
:104BB000004401400048014000180040001C004033
:104BC0000020004039490008FB48814209D1086AA9
:104BD000104206D1086A184203D1486C20F4004004
:104BE00048642068016A114206D1016A194203D162
:104BF000016821F001010160002010BD704710B56F
:104C0000846B012184F83910226A824201D1217615
:104C100010E0616A814202D1022020760AE0A16A96
:104C2000814202D10420207604E0E16A814201D170
:104C3000082020762046FFF7E1FF0020207610BDF7
:104C400070B504460D46114694F83900022804D088
:104C500094F83900012802D008E0022070BD11B993
:104C60000BB1012070BD022084F83900AFF2710051
:104C7000AFF24D3235B1042D13D0082D20D00C2DBC
:104C80003BD12CE0266AF063206AC2642268206A65
:104C90003432FBF7CDFE2068C16841F40071C16079
:104CA0002BE0666AF063606AC2642268606A383228
:104CB000FBF7BEFE2068C16841F48061C1601CE062
:104CC000A66AF063A06AC2642268A06A3C32FBF75D
:104CD000AFFE2068C16841F40061C1600DE0E66A82
:104CE000F063E06AC2642268E06A4032FBF7A0FE2B
:104CF0002068C16841F48051C160206801222946C2
:104D0000FFF7A0FEAD492068884202D0AA49884238
:104D100003D1416C41F4004141642068016841F0D5
:104D200001010160002070BD10B504460029226811
:104D300006D0042909D008290CD00C2913D10EE083
:104D4000D06820F40070D0600DE0D06820F480605E
:104D5000D06008E0D06820F40060D06003E0D06844
:104D600020F48050D06020680022FFF76BFE41F2F3
:104D70001112924821689310814202D08E488142DC
:104D800009D1086A104206D1086A184203D1486C5A
:104D900020F4004048642068016A114206D1016A8B
:104DA000194203D1016821F001010160012084F85A
:104DB0003900002010BD704710B50446002C03D008
:104DC00094F8390010B107E0012010BD002084F8EC
:104DD00038002046FFF7EFFF022084F839002068F2
:104DE000211DFFF7D9FC012084F83900002010BDF7
:104DF000704710B50446022084F839002068016A23
:104E000041F21112114207D1016A9210114203D1ED
:104E1000016821F0010101602046FFF7E9FF002051
:104E200038346070207010BD10B50446012220682F
:104E3000FFF708FE61482168814202D05E48814246
:104E400003D1486C40F4004048642068016841F098
:104E500001010160002010BD10B504460022206849
:104E6000FFF7F0FD41F2111254482168931081427E
:104E700002D05148814209D1086A104206D1086A1D
:104E8000184203D1486C20F4004048642068016A4D
:104E9000114206D1016A194203D1016821F00101D2
:104EA0000160012084F83900002010BD10B50446CF
:104EB0000029226806D0042909D008290CD00C2921
:104EC00013D10EE0D06840F00200D0600DE0D06851
:104ED00040F00400D06008E0D06840F00800D060E6
:104EE00003E0D06840F01000D06020680122FFF796
:104EF000A9FD32492068884202D02F49884203D157
:104F0000416C41F4004141642068016841F00101B5
:104F10000160002010BD10B504460029226806D0AB
:104F2000042909D008290CD00C2913D10EE0D0682F
:104F300020F00200D0600DE0D06820F00400D060C6
:104F400008E0D06820F00800D06003E0D06820F0CE
:104F50001000D06020680022FFF774FD41F21112AA
:104F6000164821689310814202D01348814209D12A
:104F7000086A104206D1086A184203D1486C20F42E
:104F8000004048642068016A114206D1016A194252
:104F900003D1016821F001010160002010BD70B54E
:104FA00004460D46114694F83900022808D094F8BA
:104FB0003900012806D00CE0000401400000014047
:104FC000022070BD11B90BB1012070BD022084F820
:104FD0003900AFF2D530AFF2B16235B1042D13D044
:104FE000082D20D00C2D3BD12CE0266AF063206ADE
:104FF000C2642268206A3432FBF71AFD2068C16857
:1050000041F40071C1602BE0666AF063606AC264BB
:105010002268606A3832FBF70BFD2068C16841F4F2
:105020008061C1601CE0A66AF063A06AC264226865
:10503000A06A3C32FBF7FCFC2068C16841F40061C7
:10504000C1600DE0E66AF063E06AC2642268E06A6B
:105050004032FBF7EDFC2068C16841F48051C1602B
:10506000206801222946FFF7EDFCFC4920688842B0
:1050700002D0FB49884203D1416C41F400414164B4
:105080002068016841F001010160002070BD10B589
:1050900004460029226806D0042909D008290CD02A
:1050A0000C2913D10EE0D06820F40070D0600DE020
:1050B000D06820F48060D06008E0D06820F4006000
:1050C000D06003E0D06820F48050D06020680022D7
:1050D000FFF7B8FC41F21112E048216893108142B9
:1050E00002D0DF48814209D1086A104206D1086A1D
:1050F000184203D1486C20F4004048642068016ADB
:10510000114206D1016A194203D1016821F001015F
:105110000160012084F83900002010BD704710B5EF
:105120000446002C03D094F8390010B107E00120A8
:1051300010BD002084F838002046FFF7EFFF022062
:1051400084F839002068211DFFF726FB012084F830
:105150003900002010BD704710B50446022084F8C5
:1051600039002068016A41F21112114207D1016A27
:105170009210114203D1016821F001010160204623
:10518000FFF7E9FF002038346070207010BD10B5C3
:10519000044601222068FFF755FC2068016841F0B1
:1051A00001010160002010BD10B5044600222068F6
:1051B000FFF748FC2068016A41F21112114207D141
:1051C000016A9210114203D1016821F001010160CE
:1051D000002010BD10B504460029226806D004291D
:1051E00009D008290CD00C2913D10EE0D06840F06A
:1051F0000200D0600DE0D06840F00400D06008E00C
:10520000D06840F00800D06003E0D06840F01000A3
:10521000D06020680122FFF715FC2068016841F08A
:1052200001010160002010BD10B50446002922686C
:1052300006D0042909D008290CD00C2913D10EE07E
:10524000D06820F00200D0600DE0D06820F00400AB
:10525000D06008E0D06820F00800D06003E0D0689B
:1052600020F01000D06020680022FFF7EBFB2068E0
:10527000016A41F21112114207D1016A92101142E2
:1052800003D1016821F001010160002010BD7047C9
:1052900010B5846B012184F83910226A824201D151
:1052A000217610E0616A814202D1022020760AE074
:1052B000A16A814202D10420207604E0E16A8142A1
:1052C00001D1082020762046FFF7E1FF002020765C
:1052D00010BD70B504460D4694F83900022804D07C
:1052E00094F83900012802D008E0022070BD12B9FC
:1052F0000BB1012070BD022084F83900AFF26F00BD
:10530000AFF6DD1135B1042D13D0082D20D00C2DB2
:105310003BD12CE0266AF063206AC1642168206AD0
:105320003431FBF785FB2068C16841F40071C1602E
:105330002BE0666AF063606AC1642168606A383194
:10534000FBF776FB2068C16841F48061C1601CE016
:10535000A66AF063A06AC1642168A06A3C31FBF7C9
:1053600067FB2068C16841F40061C1600DE0E66A36
:10537000F063E06AC1642168E06A4031FBF758FBE2
:105380002068C16841F48051C1602068012229462B
:10539000FFF758FB2068016841F00101016000201F
:1053A00070BD10B504460029226806D0042909D032
:1053B00008290CD00C2913D10EE0D06820F400701D
:1053C000D0600DE0D06820F48060D06008E0D06844
:1053D00020F40060D06003E0D06820F48050D060FA
:1053E00020680022FFF72EFB2068016A41F21112AB
:1053F000114207D1016A9210114203D1016821F0D4
:1054000001010160012084F83900002010BD7047BF
:1054100070B504460D46002C03D094F8390010B145
:1054200007E0012070BD002084F838002046FFF717
:10543000EEFF022084F839002068211DFFF7ACF947
:105440002068016821F00801016020680168294393
:105450000160012084F83900002070BD0000014087
:1054600000040140704710B50446022084F839005A
:105470002068016A41F21112114207D1016A9210AB
:10548000114203D1016821F0010101602046FFF7BC
:10549000E9FF002038346070207010BD10B504465C
:1054A000012200212068FFF7CDFA206801220421A3
:1054B000FFF7C8FAFE492068884202D0FD498842B9
:1054C00003D1416C41F400414164002010BD10B58E
:1054D0000446002211462068FFF7B4FA2068002233
:1054E0000421FFF7AFFA41F21112F148216893103D
:1054F000814202D0EF48814209D1086A104206D1A8
:10550000086A184203D1486C20F4004048642068BF
:10551000016A114206D1016A194203D1016821F0E2
:1055200001010160002010BD10B504462068C1686B
:1055300041F00201C1602068C16841F00401C1600E
:10554000206801220021FFF77DFA20680122042152
:10555000FFF778FAD6492068884202D0D5498842B8
:1055600003D1416C41F400414164002010BD10B5ED
:1055700004462068C16821F00201C1602068C1684A
:1055800021F00401C160002220681146FFF75AFA99
:10559000206800220421FFF755FA41F21111C44A94
:1055A00020688B10904202D0C24A904209D1026A10
:1055B0000A4206D1026A1A4203D1426C22F4004226
:1055C00042642068026A0A4206D1016A194203D184
:1055D000016821F001010160002010BD70472DE934
:1055E000F04104460D46002C03D094F8390018B160
:1055F00008E00120BDE8F081002084F83800204652
:10560000FFF7ECFF022084F8390020688168AA4A7D
:10561000114081602068211DFFF7BEF82068816875
:105620008269076A2B680B4340F203318A43AE69F3
:10563000A96842EA0622114340F60C4291434FF218
:10564000F0029143EE69EA6841EA06210A432969BA
:105650002E6A090141EA0636164327F0220121F09D
:10566000880269686D6942EA051211438360206807
:10567000866120680162012084F839000020B9E7C2
:10568000704710B50446022084F839002068016A8A
:1056900041F21112114207D1016A9210114203D155
:1056A000016821F0010101602046FFF7E9FF0020B9
:1056B00038346070207010BD10B504460029206891
:1056C00011D0042914D001220021FFF7BBF9206872
:1056D00001220421FFF7B6F92068016841F00101B9
:1056E0000160002010BD01220021FFF7ABF9F3E7B4
:1056F00001220421FFF7A6F9EEE710B504460029C0
:1057000020681AD004291DD000221146FFF79AF90B
:10571000206800220421FFF795F92068016A41F210
:105720001112114207D1016A9210114203D101688E
:1057300021F001010160002010BD00221146FFF799
:1057400081F9EAE700220421FFF77CF9E5E710B5CB
:105750000446002920681BD0042923D001220021FF
:10576000FFF770F9206801220421FFF76BF9206828
:10577000C16841F00201C1602068C16841F00401C4
:10578000C1602068016841F001010160002010BD86
:1057900001220021FFF756F92068C16841F002019B
:1057A000C160EEE701220421FFF74CF92068C168CF
:1057B00041F00401C160E4E710B504460029206807
:1057C00027D004292FD000221146FFF73BF920688B
:1057D00000220421FFF736F92068C16821F0020198
:1057E000C1602068C16821F00401C1602068016ABD
:1057F00041F21112114207D1016A9210114203D1F4
:10580000016821F001010160012084F839000020C5
:1058100010BD00221146FFF715F92068C16821F07C
:105820000201C160E2E700220421FFF70BF92068C2
:10583000C16821F00401C160D8E72DE9F0410446B8
:105840001E46069D94F83900022804D094F83900C9
:10585000012802D009E00220CCE602B116B90DB150
:105860000120C7E6022084F83900AFF2DB57AFF61B
:10587000497821B1042924D03C296ED13DE0206A29
:10588000C763206AC0F84C802B462168206A3431F7
:10589000FBF7CEF82068C16841F40071C160206850
:1058A000016841F00101016001222068002105E04A
:1058B0000000014000040140F8FFFEFFFFF7C2F8BE
:1058C0004BE0606AC763606AC0F84C802B46216871
:1058D0003246606A3831FBF7ABF82068C16841F4A2
:1058E0008061C1602068016841F0010101602068A9
:1058F00001220421FFF7A6F82FE0206AC763206A7F
:10590000C0F84C802B462168206A3431FBF790F8B0
:10591000606AC763606AC0F84C802B4621683246D3
:10592000606A3831FBF784F82068016841F00101B2
:105930000160206801220021FFF784F8206801221D
:105940000421FFF77FF82068C16841F40071C1604D
:105950002068C16841F48061C16000204AE610B54A
:1059600004460029206827D004292FD000221146A0
:10597000FFF768F8206800220421FFF763F8206829
:10598000C16821F40071C1602068C16821F48061A0
:10599000C1602068016A41F21112114207D1016A07
:1059A0009210114203D1016821F001010160012030
:1059B00084F83900002010BD00221146FFF742F89C
:1059C0002068C16821F40071C160E2E7002204216F
:1059D000FFF738F82068C16821F48061C160D8E71A
:1059E0007047704770B50446206801694FF00005A4
:1059F000C943890716D4C168C943890712D4E91E6F
:105A000001610120207620688069800703D020464C
:105A1000FFF73DFC05E02046FFF7E3FF2046FFF7D8
:105A2000EDF8257620680169C943490718D4C16893
:105A3000C943490714D46FF00401016102202076A4
:105A40002068806910F4407F03D02046FFF71FFCD8
:105A500005E02046FFF7C5FF2046FFF7CFF8257683
:105A600020680169C943090717D4C168C9430907F8
:105A700013D46FF008010161042020762068C0690A
:105A8000800703D02046FFF702FC05E02046FFF721
:105A9000A8FF2046FFF7B2F8257620680169C943C0
:105AA000C90618D4C168C943C90614D46FF01001DF
:105AB0000161082020762068C06910F4407F03D07F
:105AC0002046FFF7E4FB05E02046FFF78AFF20466B
:105AD000FFF794F8257620680169C943C90708D102
